:020000040000FA
:1000000018F09FE518F09FE518F09FE518F09FE5C0
:1000100018F09FE50000A0E1F0FF1FE518F09FE554
:1000200058000000400000004400000048000000AC
:100030004C000000000000005000000054000000D0
:10004000FEFFFFEAFEFFFFEAFEFFFFEAFEFFFFEA18
:10005000FEFFFFEAFEFFFFEAA0009FE5AA10A0E373
:100060005520A0E32430A0E3043080E50130A0E374
:10007000003080E50C1080E50C2080E5083090E52C
:10008000013B13E2FCFFFF0A0330A0E3003080E5F0
:100090000C1080E50C2080E564009FE50410A0E3CF
:1000A000041080E50210A0E3001080E554009FE5F5
:1000B000DBF021E300D0A0E1000040E2D7F021E333
:1000C00000D0A0E1000040E2D1F021E300D0A0E1A7
:1000D000000040E2D2F021E300D0A0E1800040E245
:1000E000D3F021E300D0A0E1080040E210F021E3CA
:1000F00000D0A0E101AB4DE20C009FE510FF2FE125
:1001000080C01FE000C01FE0C805004010010000D3
:10011000000000EB2F0000EB2C008FE2000C90E8B9
:1001200000A08AE000B08BE001704AE20B005AE1C7
:100130000000001A270000EB0F00BAE818E04FE2B9
:10014000010013E303F0471013FF2FE154280000D0
:1001500074280000102052E27800B0287800A1280E
:10016000FBFFFF8A822EB0E13000B0283000A128CA
:1001700000409045004081451EFF2FE10030B0E374
:100180000040B0E30050B0E30060B0E3102052E262
:100190007800A128FCFFFF8A822EB0E13000A12860
:1001A000003081451EFF2FE101C08FE21CFF2FE1CF
:1001B0001FB502F07FFB059886460FBC009C02B07D
:1001C0007047000001C08FE21CFF2FE130B475467C
:1001D000AE4630BC704700004E0700EB0210A0E1B5
:1001E000F0FFFFEB1CC09FE50FC08CE001001CE39B
:1001F0000DE08F120FE0A0011CFF2FE101C08FE284
:100200001CFF2FE101F0B8FE280000007847C0462F
:10021000EBFFFFEB5D0700EB10402DE90040A0E392
:10022000040000EA34009FE50400D0E730109FE5A9
:100230000400C1E7014084E2010A54E3F8FFFF3AF9
:10024000FF08A0E31C109FE5180081E5BF0500EB47
:100250000100A0E3F10500EB0000A0E1FEFFFFEAD2
:100260000000010000200040008002E00308A0E33D
:10027000441D9FE51C0081E50000A0E33C1D9FE5B7
:100280000000C1E50100A0E31EFF2FE10000A0E394
:100290002C1D9FE50000C1E50100A0E31EFF2FE13A
:1002A00070402DE91C0D9FE5000090E5400050E3F3
:1002B0000100009A4040A0E3010000EA040D9FE520
:1002C000004090E5000D9FE5000090E5040080E00F
:1002D000010950E30500009AEC0C9FE5000090E551
:1002E000014960E20400A0E3D01C9FE50000C1E5E5
:1002F000D40C9FE5000090E5011180E2021A81E232
:100300000420A0E18200A0E3740600EBB80C9FE596
:10031000000090E5040080E0AC1C9FE5000081E552
:10032000A00C9FE5000090E5040040E0941C9FE5D0
:10033000000081E5940C9FE5E40600EB045040E0EA
:10034000881C9FE50500A0E1E80600EB740C9FE522
:10035000000090E5000050E30200001A0300A0E353
:10036000581C9FE50000C1E5500C9FE50000D0E55A
:10037000020050E30500000A0108A0E3381C9FE5D5
:100380001C0081E50000A0E3441C9FE50C00C1E5D2
:100390007040BDE81EFF2FE110402DE9301C9FE5A5
:1003A000300C9FE5D10600EB0D20A0E3201C9FE55B
:1003B0008200A0E3490600EB0500A0E3FC1B9FE5DB
:1003C0000000C1E51040BDE81EFF2FE170402DE99F
:1003D000F40B9FE5000090E5FC1B9FE50010D1E5C4
:1003E000010080E0010950E30900009AD80B9FE565
:1003F000000090E5010960E2DC1B9FE50000C1E51B
:100400000500A0E3B41B9FE50000C1E50200A0E3E6
:10041000F00500EB0040A0E3070000EABC0B9FE5FD
:100420000400D0E7A01B9FE5001091E5041081E0D7
:10043000AC2B9FE50100C2E7014084E2980B9FE5E9
:100440000000D0E5000054E1F3FFFF3A780B9FE590
:10045000000090E5801B9FE50010D1E5010080E0E1
:10046000641B9FE5000081E5580B9FE5000090E5C7
:10047000641B9FE50010D1E5010040E0441B9FE5AF
:10048000000081E5440B9FE5900600EB481B9FE5CB
:100490000010D1E5015040E0301B9FE50500A0E1D0
:1004A000920600EB1C0B9FE5000090E5000050E376
:1004B0000300000A040B9FE50000D0E5050050E3AF
:1004C0000600001A0208A0E3EC1A9FE51C0081E573
:1004D0000000A0E3F81A9FE50C00C1E5ADFFFFEBBB
:1004E0007040BDE81EFF2FE170402DE9D80A9FE55E
:1004F000000090E5E01A9FE50010D1E5010080E0E2
:10050000010950E30900009ABC0A9FE5000090E54C
:10051000010960E2C01A9FE50000C1E50500A0E303
:10052000981A9FE50000C1E50200A0E3A90500EBD1
:100530000040A0E30D0000EA8C0A9FE5000090E572
:10054000040080E0981A9FE50000D1E78C1A9FE52F
:100550000410D1E7010050E10300000A0000A0E30D
:10056000801A9FE5000081E5040000EA014084E272
:10057000640A9FE50000D0E5000054E1EDFFFF3A7A
:100580000000A0E1400A9FE5000090E5481A9FE5C1
:100590000010D1E5010080E02C1A9FE5000081E504
:1005A000200A9FE5000090E52C1A9FE50010D1E598
:1005B000010040E00C1A9FE5000081E50C0A9FE570
:1005C000420600EB101A9FE50010D1E5015040E013
:1005D000F8199FE50500A0E1440600EBE4099FE55A
:1005E000000090E5000050E30300000ACC099FE5FD
:1005F0000000D0E5050050E30900001AE4099FE57A
:10060000000090E5000050E30100001A0100A0E3A3
:10061000000000EA0000A0E3B4199FE50C00C1E56A
:100620005CFFFFEB7040BDE81EFF2FE110402DE99D
:10063000B4099FE51100D0E5000CA0E1A8199FE5E1
:100640001210D1E5010880E19C199FE51310D1E556
:10065000010480E190199FE51410D1E5014080E18B
:100660008404A0E160199FE5000081E578099FE519
:100670001700D0E570199FE51610D1E5014480E11F
:100680008404A0E13C199FE5000081E55C099FE539
:100690000E0600EB2C199FE5001091E5010050E1DA
:1006A0000A00000A8200A0E34A0500EB0200A0E372
:1006B000480500EB0200A0E314199FE50C00C1E51A
:1006C00034FFFFEB0000A0E31040BDE81EFF2FE168
:1006D0000100A0E3FBFFFFEA10402DE90C099FE5B4
:1006E000FA0500EB000050E30600001A0200A0E348
:1006F000DC189FE50C00C1E526FFFFEB0000A0E33E
:100700001040BDE81EFF2FE1DC089FE50C00D0E59E
:10071000800010E30700001A0200A0E32D0500EBA3
:100720000200A0E3A8189FE50C00C1E519FFFFEB4C
:100730000000A0E3F1FFFFEA0100A0E3EFFFFFEA02
:1007400010402DE9A4089FE5E00500EB88189FE51F
:100750000010D1E5010050E10300002A8C089FE55C
:10076000DA0500EB70189FE50000C1E568089FE519
:100770000020D0E564189FE58200A0E3570500EB58
:100780000300A0E334189FE50000C1E53C089FE5A5
:10079000CE0500EB40189FE50010D1E5014040E098
:1007A00028189FE50400A0E1D00500EB0000A0E3BD
:1007B0001C189FE50C00C1E51040BDE81EFF2FE1AD
:1007C00010402DE924089FE5C00500EB000050E330
:1007D0000800000A10089FE50C00D0E5800010E337
:1007E0000200000A8200A0E3FA0400EB010000EA24
:1007F0000200A0E3F70400EB0000A0E3D0179FE5A0
:100800000C00C1E5E3FEFFEB1040BDE81EFF2FE149
:1008100010402DE9AFFFFFEB000050E30100001A8C
:100820001040BDE81EFF2FE17000A0E3AC179FE56C
:100830000000C1E50000A0E30100C1E50200A0E363
:100840000200C1E50000A0E30300C1E50400C1E52A
:100850000500C1E50600C1E50A00A0E30700C1E507
:100860000000A0E30800C1E50900C1E50A00C1E5F8
:100870000B00C1E53000A0E30C00C1E50100A0E3DE
:100880000D00C1E50000A0E30E00C1E50F00C1E5C9
:100890001000C1E51100C1E51200A0E338179FE583
:1008A0000000C1E5A5FFFFEBDCFFFFEA10402DE9EA
:1008B00088FFFFEB000050E30100001A1040BDE884
:1008C0001EFF2FE10000A0E310179FE50000C1E527
:1008D0008000A0E30100C1E50000A0E30200C1E543
:1008E0000100A0E30300C1E52000A0E30400C1E58E
:1008F0008000A0E30500C1E50000A0E30600C1E51B
:100900000700C1E54B00A0E30800C1E56500A0E3D6
:100910000900C1E56900A0E30A00C1E56C00A0E39D
:100920000B00C1E52000A0E30C00C1E50D00C1E50E
:100930000E00C1E50F00C1E54C00A0E31000C1E5C9
:100940005000A0E31100C1E54300A0E31200C1E59F
:100950003200A0E31300C1E53100A0E31400C1E5BB
:100960003400A0E31500C1E53800A0E31600C1E59E
:100970002000A0E31700C1E54400A0E31800C1E592
:100980006900A0E31900C1E57300A0E31A00C1E506
:100990006B00A0E31B00C1E52000A0E31C00C1E543
:1009A0001D00C1E51E00C1E51F00C1E53100A0E347
:1009B0002000C1E52E00A0E32100C1E53000A0E346
:1009C0002200C1E52000A0E32300C1E52400A0E34C
:1009D00004169FE50000C1E558FFFFEBB6FFFFEAF4
:1009E00010402DE93BFFFFEB000050E30100001A2F
:1009F0001040BDE81EFF2FE10300A0E3DC159FE5DA
:100A00000000C1E50000A0E30100C1E50200C1E56E
:100A10000300C1E50400A0E3BC159FE50000C1E5AB
:100A200046FFFFEBF1FFFFEA10402DE929FFFFEB46
:100A3000000050E30100001A1040BDE81EFF2FE146
:100A40000000A0E394159FE50000C1E50600A0E3C7
:100A50000100C1E50000A0E30200C1E50300C1E51B
:100A60000400C1E50500C1E50600C1E50700C1E5D8
:100A70000800A0E360159FE50000C1E52FFFFFEB34
:100A8000ECFFFFEA10402DE912FFFFEB000050E3FE
:100A90000100001A1040BDE81EFF2FE10000A0E396
:100AA00038159FE50000C1E50100C1E50200C1E580
:100AB0001F00A0E30300C1E50000A0E30400C1E5BE
:100AC0000500C1E50200A0E30600C1E50000A0E3C7
:100AD0000700C1E50800A0E3FC149FE50000C1E5A4
:100AE00016FFFFEBEAFFFFEA10402DE9F9FEFFEBEE
:100AF000000050E30100001A1040BDE81EFF2FE186
:100B00000000A0E3D4149FE50000C1E50100C1E5A9
:100B10000200C1E50800A0E30300C1E50000A0E376
:100B20000400C1E50500C1E50600C1E52000A0E321
:100B30000700C1E50200A0E30800C1E50000A0E352
:100B40000900C1E50200A0E30A00C1E50000A0E33E
:100B50000B00C1E50C00A0E37C149FE50000C1E59B
:100B6000F6FEFFEBE3FFFFEA70402DE90040A0E353
:100B7000040000EA64049FE50400D0E768149FE5E0
:100B80000400C1E7014084E24C049FE50000D0E589
:100B9000000054E1F6FFFF3A3C049FE50000D0E579
:100BA0001F0050E3AB00001A3C049FE5C70400EBB4
:100BB0003C149FE5010050E1A600001A34049FE5B3
:100BC000C20400EB0050A0E12C149FE5C70400EB29
:100BD00018049FE5BD0400EB0050A0E1EC139FE575
:100BE000C20400EB00049FE50D00D0E5000050E3D7
:100BF0000700001AF0039FE50E00D0E5010050E366
:100C0000030000BAE0039FE50E00D0E5100050E3BA
:100C1000050000DA0000A0E10100A0E3B0139FE5A9
:100C20000C00C1E5DBFDFFEB910000EAB8039FE596
:100C30000F00D0E51E0050E32F00000A100000CA8C
:100C4000120050E32700000A060000CA000050E32B
:100C50001C00000A030050E31D00000A040050E3DA
:100C60007900001A1D0000EA150050E32400000A74
:100C70001A0050E32400000A1B0050E37200001A1F
:100C80001B0000EA2A0050E34400000A060000CAE4
:100C9000230050E32400000A250050E32500000A49
:100CA000280050E36800001A250000EA2F0050E3F6
:100CB0005000000A550050E31600000A5A0050E3A5
:100CC0006100001A150000EA0000A0E1BBFEFFEB86
:100CD0005F0000EA0000A0E1CCFEFFEB5C0000EA50
:100CE0000000A0E1CBFFFFEA0000A0E1EEFEFFEB79
:100CF000570000EA0000A0E1C6FFFFEA0000A0E103
:100D0000C4FFFFEA0000A0E1C2FFFFEA0000A0E18B
:100D100032FFFFEB4E0000EA0000A0E1BDFFFFEA5A
:100D20000000A0E13FFFFFEB490000EA0000A0E166
:100D30006CFFFFEB460000EA0000A0E150FFFFEB74
:100D4000430000EA0000A0E137FEFFEB000050E3A3
:100D50001100000A90029FE50C00D0E5800010E32E
:100D60000700000A0108A0E34C129FE5140081E58A
:100D70000200A0E344129FE50000C1E547FDFFEB40
:100D8000050000EA0200A0E3920300EB0200A0E3EA
:100D90003C129FE50C00C1E57EFDFFEB2C0000EA54
:100DA0000000A0E120FEFFEB000050E31000000A6D
:100DB00034029FE50C00D0E5800010E30600001A25
:100DC0000208A0E3F0119FE5140081E50100A0E313
:100DD000E8119FE50000C1E5050000EA8200A0E3FC
:100DE0007C0300EB0200A0E3E4119FE50C00C1E5E9
:100DF00068FDFFEB160000EA0000A0E10AFEFFEB31
:100E0000000050E30F00000ADC019FE50C00D0E574
:100E1000800010E30500001A0100A0E39C119FE58B
:100E20000000C1E5BC119FE5000081E5050000EA76
:100E30008200A0E3670300EB0200A0E390119FE5AE
:100E40000C00C1E553FDFFEB010000EA0000A0E14A
:100E500070FFFFEA060000EA8200A0E35D0300EBFA
:100E60000200A0E35B0300EB0600A0E34C119FE54A
:100E70000000C1E57040BDE81EFF2FE110402DE9E4
:100E800038019FE50000D0E5020050E30600000AAB
:100E9000030050E30D00000A040050E30E00000AB6
:100EA000050050E31600001A100000EA0000A0E15F
:100EB00034019FE50F00D0E5280050E30100001A3F
:100EC000F6FCFFEB0000A0E10000A0E10C0000EA4E
:100ED0000000A0E12FFDFFEB090000EA0000A0E107
:100EE0008200A0E33B0300EB2AFDFFEB040000EAD5
:100EF0000000A0E10000A0E3C0109FE50000C1E5F4
:100F00000000A0E10000A0E11040BDE81EFF2FE1BD
:100F100010402DE9C4109FE50200A0E3430300EB5D
:100F2000B4109FE50000C1E590009FE50000D0E50A
:100F3000000050E30200000A010050E31300001A11
:100F4000020000EA0000A0E106FFFFEB170000EA44
:100F50000000A0E190009FE50F00D0E52A0050E3DB
:100F60000200000A2F0050E30600001A020000EA07
:100F70000000A0E114FDFFEB020000EA0000A0E188
:100F800058FDFFEB0000A0E10000A0E1070000EA2F
:100F90000000A0E10200A0E30E0300EB0200A0E3CA
:100FA0002C109FE50C00C1E5FAFCFFEB0000A0E16E
:100FB0000000A0E11040BDE81EFF2FE1008002E02C
:100FC0000C000040A0000040080000400400004069
:100FD0009B00004093000040555342530D000040D9
:100FE0003400004000200040000000407400004039
:100FF0007C00004055534243780000409700004079
:101000000C009FE50C109FE504209FE508309FE54C
:101010001EFF2FE14001004040050040400100401C
:101020000000A0E3FC159FE5B000C1E1F8159FE5C5
:101030000000C1E5F4159FE50000C1E5F0059FE55E
:10104000F0159FE5000081E50000A0E3E8159FE5AD
:10105000000081E51EFF2FE110402DE9DC159FE522
:101060000000A0E3F10200EB1040BDE81EFF2FE1FD
:1010700010402DE9C8059FE5B400D0E1400050E3E1
:10108000010000DA4040A0E3010000EAB0059FE55E
:10109000B440D0E1A8059FE50420A0E1001090E550
:1010A0008000A0E30D0300EB0040A0E190059FE568
:1010B000000090E5040080E084159FE5000081E5D4
:1010C000000081E2B400D0E1040040E0B400C1E1DE
:1010D0001040BDE81EFF2FE110402DE960059FE59F
:1010E000001090E50000A0E3D00200EB0040A0E17A
:1010F0004C059FE5000090E5040080E040159FE569
:10110000000081E5000081E2B400D0E1040040E08D
:10111000B400C1E11040BDE81EFF2FE110402DE9F1
:101120000020A0E30210A0E18000A0E3EB0200EBAE
:101130001040BDE81EFF2FE110402DE904159FE58A
:101140000000A0E3B90200EB1040BDE81EFF2FE154
:1011500010402DE90040A0E1080054E304F18F3075
:101160002D0100EA2C0100EA050000EAE00000EA97
:101170000C0100EA280100EA270100EA220100EA46
:101180001D0100EA0000A0E1B2FFFFEBAC149FE5F7
:101190000010D1E5011CA0E1A10FA0E16B0200EB62
:1011A00098049FE5B600D0E194149FE5B400C1E136
:1011B00088049FE50000D0E5800CA0E1200FB0E19D
:1011C0000400000A010050E39700000A020050E307
:1011D000BD00001ABA0000EA0000A0E15C049FE52F
:1011E0000100D0E50C0050E300F18F308A0000EAE6
:1011F0000A0000EA0F0000EA870000EA150000EA92
:10120000850000EA1B0000EA2A0000EA2F0000EA3D
:10121000350000EA420000EA510000EA6E0000EAF0
:101220000000A0E1BA0300EB000050E30000001A48
:10123000A70000EA7A0000EA0000A0E10000A0E3B5
:10124000140400EB000050E30000001AA00000EAC4
:10125000B1FFFFEB720000EA0000A0E10100A0E393
:101260000C0400EB000050E30000001A980000EAB4
:10127000A9FFFFEB6A0000EA0000A0E1BC039FE5C4
:101280000000D0E51F0010E30600001AAC039FE544
:101290000200D0E5800080E38C139FE50000C1E5EB
:1012A0009DFFFFEB010000EA0000A0E1880000EADA
:1012B0000000A0E15A0000EA0000A0E13A0300EBC0
:1012C000000050E30000001A810000EA540000EA28
:1012D0000000A0E10000A0E33E0200EB0000A0E35C
:1012E0005C139FE5B400C1E14D0000EA0000A0E1FD
:1012F00048039FE50000D0E51F0010E30400001A3A
:1013000028039FE538139FE5000081E557FFFFEBB9
:10131000010000EA0000A0E16D0000EA0000A0E189
:101320003F0000EA0000A0E110039FE50000D0E5C7
:101330001F0010E30600001A3C0400EB000050E31D
:101340000000001A620000EA73FFFFEBB30200EB3B
:10135000010000EA0000A0E15D0000EA0000A0E159
:101360002F0000EA0000A0E1D0029FE50000D0E5D8
:101370001F0000E2010050E31300001AAC029FE5D9
:101380000000D0E5000050E30D00000AAC029FE52C
:101390000400D0E5B0129FE50010D1E5010050E156
:1013A000070000AA94029FE50400D0E59C129FE587
:1013B000010080E088129FE5000081E52BFFFFEB34
:1013C000000000EA420000EA010000EA0000A0E19B
:1013D0003F0000EA0000A0E1110000EA0000A0E1E7
:1013E00058029FE50000D0E51F0000E2010050E335
:1013F0000500001AB70400EB000050E30000001ADB
:10140000330000EA44FFFFEB010000EA0000A0E126
:101410002F0000EA0000A0E1010000EA0000A0E1C6
:101420002B0000EA0000A0E12F0000EA0000A0E18C
:1014300008029FE50000D0E51F0000E2010050E334
:101440001B00001AF4019FE50400D0E5000050E302
:101450001600001AE4019FE50100D0E5FE0050E30C
:101460000700000AFF0050E30F00001A7EFBFFEBAD
:10147000000050E30100000A27FFFFEB0E0000EA26
:10148000090000EA0000A0E17FFBFFEB000050E351
:101490000400000AAC019FE5A4119FE5000081E56E
:1014A000F2FEFFEB040000EA0000A0E10000A0E172
:1014B000070000EA0000A0E1050000EA0000A0E14A
:1014C000090000EA0000A0E1010000EA0000A0E13C
:1014D0000000A0E18000A0E3BE0100EB0000A0E35B
:1014E0005C119FE5B400C1E10000A0E10000A0E1B3
:1014F000490000EA0000A0E140019FE50000D0E5BE
:10150000000CA0E1A00FB0E12300001A30019FE51C
:10151000B400D0E1000050E32100000AEDFEFFEB33
:101520001C019FE5B400D0E1000050E31C00001A4C
:1015300008019FE50000D0E5800CA0E1200FB0E19C
:101540000200000A010050E31100001A010000EA45
:101550000000A0E1DEFFFFEA0000A0E1DC009FE563
:101560000000D0E51F0000E2010050E30200000A85
:10157000020050E30400001A010000EA0000A0E1AC
:10158000D3FFFFEA0000A0E1D1FFFFEA0000A0E1E5
:10159000CFFFFFEA0000A0E1CDFFFFEA0000A0E1DD
:1015A000E4FEFFEB1C0000EA0000A0E18C009FE5D8
:1015B0000000D0E5800000E2800050E30100001A46
:1015C000AAFEFFEB0B0000EA5C009FE50000D0E5FF
:1015D000800010E30700000A4C009FE50000D0E502
:1015E0007F0000E240109FE50000C1E5000081E2BD
:1015F0000000D0E54B0000EB070000EA0000A0E18E
:101600008000A0E37E0100EB030000EA0000A0E1FF
:101610000000A0E37A0100EB0000A0E10000A0E1DF
:101620001040BDE81EFF2FE11000004012000040F6
:1016300013000040010001001400004018000040A9
:101640002C00004024000040A00000401C0000408E
:101650001D0000400010A0E1012EA0E1A20DA0E1BC
:10166000800011E30000000A010080E21EFF2FE16C
:101670001010A0E324279FE5081082E50110C2E1C5
:10168000100081E50000A0E110179FE5001091E532
:10169000100011E3FBFFFF0A1EFF2FE11020A0E363
:1016A000F8369FE5082083E50220C3E1100082E5BB
:1016B0000000A0E1E4269FE5002092E5100012E37F
:1016C000FBFFFF0A1020A0E3D0369FE5082083E54A
:1016D0000220C3E1101082E50000A0E1BC269FE5D6
:1016E000002092E5100012E3FBFFFF0A1EFF2FE12E
:1016F0000010A0E13000A0E3A0269FE5080082E5ED
:101700000000C2E1101080E50000A0E18C069FE51A
:10171000000090E5200010E3FBFFFF0A7C069FE538
:10172000140090E51EFF2FE110402DE90040A0E1DC
:10173000800084E3012CA0E3001882E160069FE5AD
:10174000D5FFFFEB800084E3012CA0E3001882E1C9
:101750004C069FE5D0FFFFEB1040BDE81EFF2FE1D8
:101760000000A0E334169FE5480081E54000A0E3B7
:101770004C0081E50100A0E3480081E54000A0E3C2
:101780004C0081E50000A0E110069FE5000090E517
:10179000010C10E3FBFFFF0A0000E0E3FC159FE5EE
:1017A000380081E5340081E5080081E50C00A0E304
:1017B000040081E51EFF2FE11EFF2FE11EFF2FE138
:1017C000FF502DE9D4059FE5004090E5080014E3A3
:1017D0001600000ACC059FE5A4FFFFEBC8059FE5B6
:1017E000C2FFFFEB0050A0E1100015E30200000A69
:1017F000DAFFFFEB7A0100EB4E0000EA020015E38E
:101800000000000A4B0000EA080015E30700000A88
:10181000040015E30200000AE7FFFFEB770100EB8D
:10182000010000EAE3FFFFEB780100EB410000EA72
:10183000040014E33E00000A390000EA0060A0E35F
:10184000350000EA54059FE5300090E50110A0E363
:10185000110610E12E00000AA670A0E10100A0E32D
:101860001006A0E134159FE5380081E50000A0E1F5
:1018700028059FE5000090E5200010E3FBFFFF0A2C
:1018800018059FE5145090E5010016E31700001AB3
:10189000000056E30B00001A040015E30900000ADB
:1018A00008059FE5000090E5000050E30500000AF0
:1018B000F8049FE5001090E50100A0E30FE0A0E12F
:1018C00011FF2FE1130000EAE0049FE5070190E714
:1018D000000050E30E00000AD0049FE5071190E7D6
:1018E0000200A0E30FE0A0E111FF2FE1080000EAF1
:1018F000B8049FE5070190E7000050E30400000AE8
:10190000A8049FE5071190E70300A0E30FE0A0E122
:1019100011FF2FE10000A0E1016086E2200056E304
:10192000C7FFFF3A74049FE5300090E5000050E3E4
:10193000C1FFFF1A0000A0E160049FE5084080E5B8
:101940000000A0E3D00F00E5FF50BDE804F05EE228
:1019500004E02DE558049FE5040090E50301C0E391
:101960000309C0E348149FE5040081E50100A0E1FC
:10197000040090E5010180E3010980E3040081E5B2
:101980001D0881E2C40090E5020180E31D1881E298
:10199000C40081E52300A0E3A40081E50100A0E3E9
:1019A000A00081E5AA00A0E3AC0081E55500A0E31A
:1019B000AC0081E50000A0E1F8039FE5A80090E5F8
:1019C000010B10E3FBFFFF0A0300A0E3E4139FE514
:1019D000A00081E5AA00A0E3AC0081E55500A0E3EA
:1019E000AC0081E58B0F4FE20010A0E3000F01E592
:1019F0003600A0E3000E01E50105A0E3F00F01E5CC
:101A00000800A0E394139FE5040081E553FFFFEB7A
:101A10000000A0E343FFFFEB04E09DE41EFF2FE185
:101A200010402DE90040A0E1000054E30100000A4D
:101A30000100A0E3000000EA0000A0E3012CA0E305
:101A4000001882E15C039FE513FFFFEB1040BDE847
:101A50001EFF2FE104E02DE55C039FE5B000D0E11F
:101A6000020010E30200000A50139FE534039FE5D3
:101A700009FFFFEB04E09DE41EFF2FE11EFF2FE1B5
:101A800010402DE90040A0E1000054E30100000AED
:101A90000100A0E3000000EA0000A0E3012CA0E3A5
:101AA000001882E118039FE5FBFEFFEB0300A0E3B3
:101AB000E8129FE5440081E50000A0E1DC029FE51B
:101AC000000090E5010C10E3FBFFFF0A010CA0E30E
:101AD000C8129FE5080081E51040BDE81EFF2FE118
:101AE00010402DE90030A0E10200D3E5D8FEFFEB65
:101AF0000040A0E1A4029FE5440090E50110A0E3AE
:101B0000110480E194129FE5440081E50100A0E109
:101B1000484080E50500D3E50410D3E5000481E1E9
:101B200078129FE54C0081E50000A0E16C029FE582
:101B3000000090E5010C10E3FBFFFF0A010CA0E39D
:101B400058129FE5080081E51040BDE81EFF2FE117
:101B50001EFF2FE130402DE90040A0E10400A0E18C
:101B6000BBFEFFEB5C129FE5005881E1011CA0E386
:101B70000500A0E1C8FEFFEB3040BDE81EFF2FE1ED
:101B800030402DE90040A0E10400A0E1B0FEFFEBF1
:101B900030129FE5005881E12C129FE50500A0E17D
:101BA000BDFEFFEB3040BDE81EFF2FE130402DE9C8
:101BB0000040A0E10400A0E1A5FEFFEB04129FE5B8
:101BC000005881E1011CA0E30500A0E1B2FEFFEB9B
:101BD0003040BDE81EFF2FE130402DE90040A0E17C
:101BE0000400A0E19AFEFFEBD8119FE5005881E1C7
:101BF000C8119FE50500A0E1A7FEFFEB3040BDE85E
:101C00001EFF2FE130402DE90040A0E10400A0E1DB
:101C10008FFEFFEBAC119FE5005881E1011CA0E3B2
:101C20000500A0E19CFEFFEB3040BDE81EFF2FE168
:101C3000F0412DE90040A0E10150A0E10F0004E2D5
:101C40000110A0E3000181E150119FE5280081E52A
:101C50000000A0E144019FE5206090E5020B16E33F
:101C6000FBFFFF0A066BA0E1266BA0E10070A0E37A
:101C7000050000EA24119FE5180091E50510A0E198
:101C80009A0000EB045085E2017087E2030086E2CF
:101C9000200157E1F6FFFF3A0000A0E3FC109FE5AA
:101CA000280081E524019FE55004A0E1010010E334
:101CB0000700001A0400A0E165FEFFEB051CA0E38D
:101CC000003881E10300A0E168FEFFEB00019FE521
:101CD00066FEFFEB0600A0E1F041BDE81EFF2FE12C
:101CE000F0412DE90040A0E10150A0E10260A0E137
:101CF0000F0004E20210A0E3000181E19C109FE5C7
:101D0000280081E50100A0E1246080E50070A0E3E7
:101D1000050000EA0500A0E16C0000EB7C109FE5E7
:101D20001C0081E5045085E2017087E2030086E231
:101D3000200157E1F6FFFF3A0000A0E35C109FE5A9
:101D4000280081E50400A0E141FEFFEB051CA0E3B3
:101D5000003881E10300A0E144FEFFEB74009FE541
:101D600042FEFFEB0600A0E1F041BDE81EFF2FE1BF
:101D700004E02DE560009FE53CFEFFEB5C009FE585
:101D80005AFEFFEB0030A0E150009FE557FEFFEB4D
:101D9000003483E10300A0E104E09DE41EFF2FE195
:101DA000000009E00005D0000005FE000002FE0072
:101DB0006029000000C002E000C01FE010000040E9
:101DC000000101000005D8000005400000012000CE
:101DD000481200000005F2000005FA000005F500B9
:101DE0000002F50010402DE98CFCFFEB0105A0E39B
:101DF000D0109FE51C0081E51040BDE81EFF2FE1DB
:101E00000205A0E3BC109FE5140081E51EFF2FE151
:101E10000205A0E3AC109FE51C0081E51EFF2FE149
:101E2000A4009FE50000D0E5000050E30300000A95
:101E30000105A0E38C109FE5140081E5020000EA93
:101E40000105A0E37C109FE51C0081E51EFF2FE14A
:101E50001EFF2FE110402DE90040A0E1020054E3F5
:101E60000200000A030054E30600001A020000EA20
:101E70000000A0E125FCFFEB020000EA0000A0E169
:101E8000FDFBFFEB0000A0E10000A0E11040BDE879
:101E90001EFF2FE11EFF2FE11EFF2FE11EFF2FE18E
:101EA0001EFF2FE11EFF2FE11EFF2FE11EFF2FE17E
:101EB0001EFF2FE11EFF2FE11EFF2FE11EFF2FE16E
:101EC0001EFF2FE11EFF2FE1008002E01300004003
:101ED0000120D0E50010D0E50230D0E50300D0E5C8
:101EE000021481E1031881E1000C81E11EFF2FE162
:101EF0002024A0E10000C1E50120C1E52028A0E1E7
:101F00000220C1E5202CA0E10320C1E51EFF2FE146
:101F100070477047704700000E50A0E1180000EBBA
:101F200005E0A0E10050B0E10D10A0E10A30A0E111
:101F30000700C0E300D0A0E160D08DE220402DE991
:101F40002EFCFFEB2040BDE80060A0E30070A0E3A2
:101F50000080A0E300B0A0E30710C1E305C0A0E14A
:101F6000C009ACE8C009ACE8C009ACE8C009ACE8FD
:101F700001D0A0E11EFF2FE10400C046C0462000B2
:101F8000FEF744F900009FE51EFF2FE1E00000404E
:101F90000C109FE51800A0E3563412EF1EFF2FE14E
:101FA00008000000260002001EFF2FE170402DE90E
:101FB00048019FE50000D0E51F0010E20200000A82
:101FC000010050E34000001A3B0000EA0000A0E1DD
:101FD00028019FE50300D0E5010050E30400000A5A
:101FE000020050E30800000A030050E32D00001A2D
:101FF000210000EA0000A0E104019FE504119FE533
:10200000000081E51250A0E3290000EA0000A0E1F1
:10201000F4409FE50060A0E3070000EA0000D4E57B
:10202000000050E30300000A0300D4E50210D4E5E9
:10203000000481E1004084E0016086E2BC009FE58D
:102040000200D0E5060050E1F3FFFF1A0000D4E5DE
:10205000000050E30200001A0000A0E37040BDE859
:102060001EFF2FE19C009FE5004080E50300D4E5C2
:102070000210D4E5005481E10D0000EA0000A0E167
:1020800078009FE50200D0E580109FE5010080E028
:1020900070109FE5000081E5000081E2000090E5FE
:1020A0000050D0E5020000EA0000A0E10000A0E33B
:1020B000E9FFFFEA0000A0E1060000EA0000A0E15D
:1020C0000000A0E10000A0E3E3FFFFEA0000A0E1C0
:1020D0000000A0E3E0FFFFEA0000A0E124009FE58C
:1020E000B400D0E1050050E10100009A14109FE512
:1020F000B450C1E1DDFBFFEB0100A0E3D6FFFFEA36
:102100002C000040BC28000024000040CE28000025
:10211000EF28000070402DE958019FE50000D0E550
:102120001F0010E20400000A010050E30800000A4A
:10213000020050E34900001A1D0000EA0000A0E17F
:1021400034019FE534119FE5000081E5C7FBFFEBFB
:10215000450000EA0000A0E124019FE50000D0E571
:10216000000050E30E00000A08019FE50400D0E5DE
:1021700010119FE50010D1E5010050E1080000AA10
:102180000000A0E300119FE50000C1E50100C1E5EA
:10219000000081E2E4109FE5000081E5B3FBFFEB66
:1021A000020000EA0000A0E37040BDE81EFF2FE13E
:1021B0002D0000EA0000A0E1B8009FE50400D0E592
:1021C0008F4000E2800014E30300000A0F0004E2E5
:1021D0000118A0E31100A0E1010000EA0100A0E362
:1021E0001004A0E10050A0E194009FE50000D0E5BC
:1021F000000050E30100001A0F0014E31400001A5D
:1022000088009FE5000090E5050010E11000000A3D
:102210007C009FE5000090E5050010E10100000A48
:102220000100A0E3000000EA0000A0E30018A0E124
:102230002118A0E150009FE50010C0E52114A0E1A5
:102240000110C0E534109FE5000081E587FBFFEB3E
:10225000010000EA0000A0E3D2FFFFEA020000EA6A
:102260000000A0E10000A0E3CEFFFFEA0000A0E133
:102270000100A0E3CBFFFFEA2C000040100000406B
:1022800024000040130000401C000040A00000405B
:10229000140000401800004070402DE90040A0E10B
:1022A00074019FE50000D0E51F0010E20400000A61
:1022B000010050E31D00000A020050E35000001A24
:1022C0001D0000EA0000A0E14C019FE5B200D0E152
:1022D000010050E31100001A000054E30700000A57
:1022E0000100A0E3E4FDFFEB30019FE5B000D0E189
:1022F000020080E324119FE5B000C1E10A0000EA7A
:102300000000A0E3DCFDFFEB10019FE5B000D0E191
:102310000200C0E304119FE5B000C1E1020000EA41
:102320000000A0E37040BDE81EFF2FE1370000EA87
:102330000000A0E10000A0E3F9FFFFEA0000A0E137
:10234000D4009FE50400D0E58F5000E2800015E343
:102350000300000A0F0005E20118A0E31100A0E14C
:10236000010000EA0100A0E31005A0E10060A0E187
:10237000AC009FE50000D0E5000050E31D00000A1E
:102380000F0015E31B00000A98009FE5000090E590
:10239000060010E11700000A7C009FE5B200D0E1C2
:1023A000000050E31100001A000054E30700000A87
:1023B0000500A0E107FEFFEB6C009FE5000090E543
:1023C000060080E160109FE5000081E50B0000EA57
:1023D0000500A0E10AFEFFEB4C009FE5000090E540
:1023E0000600C0E140109FE5000081E5030000EA1F
:1023F0000000A0E3CAFFFFEA0000A0E3C8FFFFEA75
:10240000020000EA0000A0E10000A0E3C4FFFFEA30
:102410000000A0E10100A0E3C1FFFFEA2C000040A2
:10242000100000401300004014000040180000405D
:10243000F0412DE978029FE50200D0E5000050E36D
:102440007300000A6C429FE56D0000EA0100D4E5CC
:10245000020050E30400000A040050E34700000AB1
:10246000050050E36200001A470000EA0000A0E106
:102470000500D4E538129FE50210D1E5010050E1D6
:102480003800001A28029FE50200D0E528129FE5D7
:102490000000C1E50400D4E520129FE50000C1E57D
:1024A0000050A0E3030000EA0000A0E310129FE543
:1024B0000500C1E7015085E2040055E3F9FFFF3A4A
:1024C0000150A0E30E0000EA0100A0E3F4119FE533
:1024D000001091E5100511E10100000A0500A0E1DE
:1024E000A6FDFFEB0108A0E3D8119FE5001091E5E0
:1024F000100511E10100000A800085E39FFDFFEB5C
:10250000015085E2100055E3EEFFFF3AB8019FE568
:10251000B0119FE5000081E50000A0E3AC119FE54C
:10252000000081E50100A0E354FDFFEB0700D4E5C6
:10253000400010E30500000A94019FE5B000D0E1DF
:10254000010080E388119FE5B000C1E10A0000EAC4
:102550007C019FE5B000D0E10100C0E370119FE570
:10256000B000C1E1040000EA0300D4E50210D4E5A4
:10257000000481E1004084E0210000EA1C0000EA40
:102580000000A0E10370D4E5190000EA0000A0E11A
:10259000000057E31500001A0200D4E58F5000E256
:1025A000800015E30300000A0F0005E20118A0E314
:1025B0001100A0E1010000EA0100A0E31005A0E184
:1025C0000060A0E1FC009FE5000090E5060080E1CE
:1025D000F0109FE5000081E50400A0E13FFDFFEB66
:1025E0000500A0E15AFDFFEB0500A0E16EFDFFEB49
:1025F0000000A0E10000A0E10000D4E5004084E07C
:102600000000A0E10000D4E5000050E38EFFFF1AB7
:102610001C0000EA0000A0E39C109FE50000C1E55B
:102620000150A0E30E0000EA0100A0E394109FE532
:10263000001091E5100511E10100000A0500A0E17C
:102640004EFDFFEB0108A0E378109FE5001091E537
:10265000100511E10100000A800085E347FDFFEB52
:10266000015085E2100055E3EEFFFF3A58009FE568
:1026700050109FE5000081E50000A0E34C109FE5AD
:10268000000081E5FDFCFFEB24009FE50200D0E5A2
:1026900024109FE50010D1E5010050E10200001A6E
:1026A0000100A0E3F041BDE81EFF2FE10000A0E320
:1026B000FBFFFFEA2C000040CE2800001300004082
:1026C0001C0000401D0000401400004001000100FB
:1026D0001800004010000040F05F2DE9B8019FE5B0
:1026E0000000D0E5000050E30200001A0000A0E363
:1026F000F05FBDE81EFF2FE100B0A0E39C419FE525
:10270000600000EA0100D4E5020050E30400000A82
:10271000040050E30E00000A050050E35500001AC3
:102720001D0000EA0000A0E10500D4E568119FE566
:102730000010D1E5010050E10400000A0300D4E5D7
:102740000210D4E5000481E1004084E04D0000EA7D
:10275000480000EA0000A0E10250D4E50360D4E59F
:102760000080A0E338019FE50400D0E5050050E1BA
:102770000800001A28019FE50200D0E5060050E19C
:102780000400001A01B0A0E318019FE50570D0E72E
:10279000001080E20560C1E7360000EA0000A0E119
:1027A000FC009FE50400D0E5050050E13000001A70
:1027B0000200D4E58F9000E2800019E30300000AD4
:1027C0000F0009E20118A0E31100A0E1010000EAF6
:1027D0000100A0E31009A0E100A0A0E1C0009FE576
:1027E0000200D0E5060050E11100001AB8009FE594
:1027F000000090E50A0080E1AC109FE5000081E553
:10280000A8009FE5000090E50A00C0E19C109FE54C
:10281000000081E50400A0E1B0FCFFEB0900A0E1AD
:10282000CBFCFFEB0900A0E1DFFCFFEB0A8088E1B5
:102830000F0000EA070056E10D00001A0A0018E137
:102840000B00001A60009FE5000090E50A00C0E15F
:1028500054109FE5000081E550009FE5000090E5E1
:102860000A00C0E144109FE5000081E50900A0E1F5
:10287000C2FCFFEB0000A0E10000A0E10000D4E5F5
:10288000004084E00000A0E10000D4E5000050E337
:102890009BFFFF1A0B00A0E194FFFFEA130000402A
:1028A000CE2800002C0000401D0000401400004015
:1028B000180000407847C0461EFF2FE112011001AA
:1028C0000000004051C20313000104204801090226
:1028D0002000010100803209040000020806506255
:1028E00007058202400000070502024000000004C4
:1028F0000309041C034B00650069006C00200053B1
:10290000006F0066007400770061007200650028A7
:10291000034B00650069006C0020004D004300423D
:1029200000320031003400300020004D0065006DA1
:10293000006F00720079001A03440045004D004FFB
:102940000030003000300030003000300030003007
:10295000000E034D0065006D006F007200790000ED
:102960005011000000000000541E00000000000094
:102970000000000000000000000000000000000057
:102980000000000000000000000000000000000047
:102990000000000000000000000000000000000037
:1029A000001001000000004034000000540100004D
:1029B0003410010034000040CC5F00007C010000B6
:1029C0000000000000000000000000000000000007
:1029D00000000000000000000000000000000000F7
:1029E00000000000000000000000000000000000E7
:1029F00000000000000000000000000000000000D7
:020000040001F9
:10000000EB3C904D53444F53352E3000020101001C
:100010000110002000F802000100010000000000B3
:1000200000000000000029741902274C50433231AF
:10003000343820555342464154313220202033C9B0
:100040008ED1BCF07B8ED9B800208EC0FCBD007C68
:10005000384E247D248BC199E83C01721C83EB3A15
:1000600066A11C7C26663B07268A57FC750680CA5B
:100070000288560280C31073EB33C98A461098F782
:10008000661603461C13561E03460E13D18B7611BB
:10009000608946FC8956FEB82000F7E68B5E0B03AC
:1000A000C348F7F30146FC114EFE61BF0000E8E6CD
:1000B00000723926382D741760B10BBEA17DF3A6EE
:1000C0006174324E740983C7203BFB72E6EBDCA0FF
:1000D000FB7DB47D8BF0AC9840740C487413B40E67
:1000E000BB0700CD10EBEFA0FD7DEBE6A0FC7DEBA8
:1000F000E1CD16CD19268B551A52B001BB0000E890
:100100003B0072E85B8A5624BE0B7C8BFCC746F032
:100110003D7DC746F4297D8CD9894EF2894EF6C6BD
:1001200006967DCBEA030000200FB6C8668B46F822
:100130006603461C668BD066C1EA10EB5E0FB6C83C
:100140004A4A8A460D32E4F7E20346FC1356FEEBB8
:100150004A525006536A016A10918B4618969233A0
:10016000D2F7F691F7F64287CAF7761A8AF28AE84A
:10017000C0CC020ACCB80102807E020E7504B442E3
:100180008BF48A5624CD136161720B4075014203D2
:100190005E0B497506F8C341BB000060666A00EB60
:1001A000B04E544C44522020202020200D0A52658D
:1001B0006D6F7665206469736B73206F72206F7446
:1001C000686572206D656469612EFF0D0A4469736C
:1001D0006B206572726F72FF0D0A50726573732027
:1001E000616E79206B657920746F2072657374611C
:1001F00072740D0A00000000000000ACCBD855AAB4
:10020000F8FFFFFFFFFFFF0F0000000000000000ED
:1002100000000000000000000000000000000000DE
:1002200000000000000000000000000000000000CE
:1002300000000000000000000000000000000000BE
:1002400000000000000000000000000000000000AE
:100600004C5043323134382055534228000000000A
:1006100000000000000000000000000000000000DA
:10062000524541444D4520205458542100000000BB
:100630002100BB320000DC83BB3202005D00000001
:1006400000000000000000000000000000000000AA
:10065000000000000000000000000000000000009A
:10066000000000000000000000000000000000008A
:10067000000000000000000000000000000000007A
:10068000000000000000000000000000000000006A
:10069000000000000000000000000000000000005A
:1006A000000000000000000000000000000000004A
:1006B000000000000000000000000000000000003A
:1006C000000000000000000000000000000000002A
:1006D000000000000000000000000000000000001A
:1006E000000000000000000000000000000000000A
:1006F00000000000000000000000000000000000FA
:1007000000000000000000000000000000000000E9
:1007100000000000000000000000000000000000D9
:1007200000000000000000000000000000000000C9
:1007300000000000000000000000000000000000B9
:1007400000000000000000000000000000000000A9
:100750000000000000000000000000000000000099
:100760000000000000000000000000000000000089
:100770000000000000000000000000000000000079
:100780000000000000000000000000000000000069
:100790000000000000000000000000000000000059
:1007A0000000000000000000000000000000000049
:1007B0000000000000000000000000000000000039
:1007C0000000000000000000000000000000000029
:1007D0000000000000000000000000000000000019
:1007E0000000000000000000000000000000000009
:1007F00000000000000000000000000000000000F9
:1008000054686973206973206120555342204D65F7
:100810006D6F7279204465766963652064656D6FDC
:100820006E7374726174696F6E20666F720D0A74F4
:100830006865204B65696C204D434232313430206D
:10084000426F6172642077697468205068696C69CE
:100850007073204C5043323134382E0D0A000000A2
:100860000000000000000000000000000000000088
:100870000000000000000000000000000000000078
:100880000000000000000000000000000000000068
:100890000000000000000000000000000000000058
:0410300000000000BC
:0400000500000110E6
:00000001FF
